:020000040800F2
:1000000060060020190200082102000823020008EF
:10001000250200082702000829020008000000004D
:100020000000000000000000000000002B0200089B
:100030002D020008000000002F0200083102000815
:1000400033020008330200083302000833020008BC
:1000500033020008330200083302000833020008AC
:10006000330200083302000833020008330200089C
:10007000330200083302000833020008330200088C
:1000800033020008330200083302000800000000B9
:100090000000000000000000000000003302000823
:1000A000330200083302000833020008330200085C
:1000B000330200083302000833020008330200084C
:1000C000330200083302000833020008330200083C
:1000D0003302000833020008330200080000000069
:1000E0003302000833020008330200080000000059
:1000F00000000000000000000000000033020008C3
:100100000000000033020008330200083302000838
:1001100000000000000000000000000000000000DF
:1001200033020008330200083302000833020008DB
:100130003302000800000000000000000000000082
:100140000000000000000000000000003302000872
:1001500033020008330200083302000833020008AB
:100160003302000833020008000000000000000015
:10017000000000000000000000000000000000007F
:100180000000000033020008000000000000000032
:100190003302000800F002F800F02EF80AA090E800
:1001A000000C82448344AAF10107DA4501D100F032
:1001B00023F8AFF2090EBAE80F0013F0010F18BFD1
:1001C000FB1A43F001031847C80B0000D80B0000CE
:1001D0000023002400250026103A28BF78C1FBD850
:1001E000520728BF30C148BF0B6070471FB500F0F1
:1001F000C2FD1FBD10B510BD00F031F81146FFF76C
:10020000F5FF00F087FD00F04FF803B4FFF7F2FFB1
:1002100003BC00F057F80000094880470948004730
:10022000FEE7FEE7FEE7FEE7FEE7FEE7FEE7FEE7A6
:10023000FEE7FEE704480549054A064B7047000003
:10024000010D0008950100086000002060060020F4
:1002500060020020600200207047704770477546BA
:1002600000F02CF8AE4605006946534620F0070022
:10027000854618B020B5FFF7DDFFBDE820404FF000
:1002800000064FF000074FF000084FF0000BAC469F
:10029000ACE8C009ACE8C009ACE8C009ACE8C009EA
:1002A00021F007018D46704710B50446AFF300807A
:1002B0002046BDE81040FFF7A8BF00000048704787
:1002C0000000002001491820ABBEFEE72600020016
:1002D000704700008AB08DF827008DF826108DF841
:1002E00025209DF8250001460891002800F00F8187
:1002F000FFE70898012840F0FF81FFE79DF82700FD
:1003000000EB400246F21041C4F20201069151F89E
:10031000320020F0010041F832009DF8270000EB88
:10032000400251F8320040F0006041F832009DF880
:10033000270000EB400251F8320020F0806041F8C5
:1003400032009DF8270000EB400251F8320020F007
:10035000007041F832009DF8270000EB400251F890
:10036000320040F4003041F832009DF8270000EBE5
:10037000400251F8320020F4003041F832009DF87C
:1003800026000146079140B1FFE70798012832D0C7
:10039000FFE70798022847D05FE09DF8270000EBB1
:1003A000400246F21041C4F20201059151F83200B8
:1003B00040F0800041F832009DF8270000EB400239
:1003C00051F8320020F0400041F832009DF827003B
:1003D00000EB400251F8320040F4802041F8320036
:1003E0009DF8270000EB400251F8320040F4002055
:1003F00041F8320031E09DF8270000EB400246F260
:100400001041C4F2020151F8320020F0800041F89E
:1004100032009DF8270000EB400251F8320040F016
:10042000400041F8320018E09DF8270000EB400240
:1004300046F21041C4F2020151F8320020F080006F
:1004400041F832009DF8270000EB400251F83200DD
:1004500020F0400041F83200FFE79DF8270000EB54
:10046000400246F21041C4F20201049151F83200F8
:1004700020F4804041F832009DF8270000EB400254
:1004800051F8320020F4005041F832009DF8270066
:1004900000EB400251F8320020F4805041F8320065
:1004A0009DF8270000EB400251F8320020F4006074
:1004B00041F832009DF8270000EB400346F2244249
:1004C000C4F2020252F8330040F0040042F8330054
:1004D0009DF8270000EB400251F8320020F48060C4
:1004E00041F832009DF8270000EB400251F832003D
:1004F00020F4007041F832009DF8270000EB400224
:1005000051F8320040F0100041F83200F4E09DF85C
:10051000270000EB400246F21001C4F202010291F2
:1005200051F8320020F0010041F832009DF8270018
:1005300000EB400251F8320040F0006041F8320018
:100540009DF8270000EB400251F8320020F0806057
:1005500041F832009DF8270000EB400251F83200CC
:1005600020F0007041F832009DF8270000EB4002B7
:1005700051F8320040F4003041F832009DF8270075
:1005800000EB400251F8320020F4003041F8320014
:100590009DF826000146039140B1FFE7039801282A
:1005A00032D0FFE70398022847D05FE09DF827008C
:1005B00000EB400246F21001C4F20201019151F831
:1005C000320040F0800041F832009DF8270000EB37
:1005D000400251F8320020F0400041F832009DF80E
:1005E000270000EB400251F8320040F4802041F82F
:1005F00032009DF8270000EB400251F8320040F431
:10060000002041F8320031E09DF8270000EB400265
:1006100046F21001C4F2020151F8320020F08000CD
:1006200041F832009DF8270000EB400251F83200FB
:1006300040F0400041F8320018E09DF8270000EB40
:10064000400246F21001C4F2020151F8320020F0DB
:10065000800041F832009DF8270000EB400251F87D
:10066000320020F0400041F83200FFE79DF82700FB
:1006700000EB400246F21001C4F20201009151F871
:10068000320040F4804041F832009DF8270000EB32
:10069000400251F8320020F4005041F832009DF839
:1006A000270000EB400251F8320040F4805041F83E
:1006B00032009DF8270000EB400251F8320020F490
:1006C000006041F832009DF8270000EB400346F23D
:1006D0002402C4F2020252F8330020F0040042F86F
:1006E00033009DF8270000EB400251F8320040F043
:1006F000100041F83200FFE70AB0704710B587B02C
:100700008C4686460A980999CDF818E0CDF814C0B1
:1007100004928DF80F308DF80E108DF80D009DF8B5
:100720000D000146029100287DD0FFE702980128C4
:1007300040F0F180FFE79DF80E000146019140B1C5
:10074000FFE70198012827D0FFE70198022846D04B
:1007500068E0BDF810009DF80F1001EB410246F271
:100760001441C4F2020141F8320006989DF80F10BE
:1007700001EB410246F21C41C4F2020141F8320091
:1007800005989DF80F1001EB410246F22041C4F29A
:10079000020141F8320045E0BDF810009DF80F104D
:1007A00001EB410246F21441C4F2020141F8320069
:1007B00006989DF80F1001EB410246F21C41C4F26D
:1007C000020141F8320005989DF80F1001EB41023B
:1007D00046F21841C4F2020141F8320022E0BDF8AD
:1007E00010009DF80F1001EB410246F21441C4F2D3
:1007F000020141F8320006989DF80F1001EB41020A
:1008000046F21841C4F2020141F8320005989DF801
:100810000F1001EB410246F21C41C4F2020141F803
:100820003200FFE777E09DF80E000146009140B1ED
:10083000FFE70098012827D0FFE70098022846D05C
:1008400068E0BDF810009DF80F1001EB410246F280
:100850001401C4F2020141F8320006989DF80F100D
:1008600001EB410246F21C01C4F2020141F83200E0
:1008700005989DF80F1001EB410246F22001C4F2E9
:10088000020141F8320045E0BDF810009DF80F105C
:1008900001EB410246F21401C4F2020141F83200B8
:1008A00006989DF80F1001EB410246F21C01C4F2BC
:1008B000020141F8320005989DF80F1001EB41024A
:1008C00046F21801C4F2020141F8320022E0BDF8FC
:1008D00010009DF80F1001EB410246F21401C4F222
:1008E000020141F8320006989DF80F1001EB410219
:1008F00046F21801C4F2020141F8320005989DF851
:100900000F1001EB410246F21C01C4F2020141F852
:100910003200FFE7FFE707B010BD000082B08DF89E
:1009200007008DF806109DF806000146009148B3B7
:10093000FFE7009801284AD1FFE746F20041C4F2E0
:1009400002014FF0FF30086046F20441C4F2020198
:10095000086046F20841C4F20201086046F20C4108
:10096000C4F2020108609DF8070000EB400246F265
:100970001041C4F2020151F8320040F0010041F888
:10098000320024E046F20001C4F202014FF6FF708B
:10099000086046F20401C4F20201086046F2080150
:1009A000C4F20201086046F20C01C4F202010860C0
:1009B0009DF8070000EB400246F21001C4F202016C
:1009C00051F8320040F0010041F83200FFE702B078
:1009D0007047000082B08DF807008DF806109DF872
:1009E000070001460091032838D80099DFE801F09C
:1009F000020F1C299DF80610012000FA01F243F6AF
:100A00003001C4F2020108681043086026E09DF836
:100A10000610012000FA01F243F63401C4F202018B
:100A200008681043086019E09DF80610012000FADC
:100A300001F243F66001C4F2020108681043086045
:100A40000CE09DF80610012000FA01F243F6640163
:100A5000C4F20201086810430860FFE702B0704763
:100A600010B588B08C4686460B980A998DF81FE021
:100A70008DF81EC08DF81D208DF81C308DF81B10D0
:100A80008DF81A009DF81F000146059140B1FFE75F
:100A90000598012829D0FFE7059802282ED062E0AA
:100AA0009DF81E000146049120B1FFE7049801283B
:100AB0000DD019E043F60001C4F20201086840F4C9
:100AC00080300860086820F4802008600CE043F65D
:100AD0000001C4F20201086840F480300860086830
:100AE00040F480200860FFE73DE043F60001C4F2D7
:100AF0000201086840F00100086034E09DF81D0024
:100B00000146039120B1FFE70398012815D029E0A1
:100B100043F60001C4F20201086840F48030086026
:100B2000086840F08070086043F60401C4F20201D6
:100B3000086840F48000086014E043F60001C4F245
:100B40000201086840F001000860086840F0807009
:100B5000086043F60401C4F20201086820F4800032
:100B60000860FFE7FFE79DF81B000146029104289B
:100B700030D80299DFE801F0030A131C250043F680
:100B80000401C4F202010868086023E043F604018E
:100B9000C4F20201086840F4805008601AE043F68D
:100BA0000401C4F20201086840F4A050086011E09A
:100BB00043F60401C4F20201086840F4C050086022
:100BC00008E043F60401C4F20201086840F4E05072
:100BD0000860FFE79DF81A0001460191042830D80B
:100BE0000199DFE801F0030A131C250043F6040114
:100BF000C4F202010868086023E043F60401C4F26D
:100C00000201086840F4004008601AE043F604015D
:100C1000C4F20201086840F42040086011E043F685
:100C20000401C4F20201086840F44040086008E092
:100C300043F60401C4F20201086840F46040086011
:100C4000FFE79DF81C0001460091092856D800993D
:100C5000DFE801F0050C151E27543039424B43F6EE
:100C60000401C4F202010868086047E043F6040189
:100C7000C4F20201086840F0800008603EE043F6DC
:100C80000401C4F20201086840F09000086035E0F9
:100C900043F60401C4F20201086840F0A0000860B5
:100CA0002CE043F60401C4F20201086840F0B000F1
:100CB000086023E043F60401C4F20201086840F032
:100CC000C00008601AE043F60401C4F2020108689B
:100CD00040F0D000086011E043F60401C4F20201C4
:100CE000086840F0E000086008E043F60401C4F240
:100CF0000201086840F0F0000860FFE708B010BD8E
:100D00004EF68851CEF20001086840F47000086089
:100D10007047000080B588B0002302930793042039
:100D20000390069069460120059048600B601946C3
:100D30001A46FFF795FE02981621FFF74BFE03991E
:100D40000320FFF747FE059A072004901146FFF79E
:100D5000C1FA049B059A68464260026006A841F207
:100D60000401C4F20101FFF7C9FC04980599FFF7DB
:100D7000D5FDFFE7FEE7F1EE100A4FF6FF71C0F276
:100D8000C03120EA010040F04070E1EE100A7047E7
:100D9000A00D00080000002060060000D00100083F
:0400000508000219D4
:00000001FF
